:020000040800F2
:100000000000052065380008B5380008B53800083C
:10001000B5380008B5380008B53800080000000001
:10002000000000000000000000000000B5380008DB
:10003000B538000800000000B5380008B5380008E1
:10004000B5380008B5380008B5380008B5380008DC
:10005000B5380008B53800085D2B00085D2D000894
:10006000B5380008013000089D310008B538000897
:10007000B5380008B5380008B5380008B5380008AC
:10008000B5380008B5380008B5380008B53800089C
:10009000B5380008B5380008B538000859330008ED
:1000A000B5380008B5380008B5380008B53800087C
:1000B00085270008B5380008B5380008B5380008AD
:1000C000B5380008B5380008B5380008B53800085C
:1000D000B5380008B5380008B5380008B53800084C
:1000E00001350008B5380008B5380008B5380008F3
:1000F000B5380008B5380008B5380008B53800082C
:10010000B5380008B5380008A9280008B538000837
:10011000B5380008B5380008B5380008B53800080B
:10012000B5380008B5380008B5380008B5380008FB
:10013000B5380008B5380008B5380008B5380008EB
:10014000B5380008B5380008B5380008B5380008DB
:10015000B5380008B5380008B5380008B5380008CB
:10016000B5380008B5380008B5380008B5380008BB
:10017000B5380008B5380008B5380008B5380008AB
:10018000B5380008B5380008B5380008B53800089B
:10019000B5380008B5380008B5380008B53800088B
:1001A000B5380008B5380008B5380008B53800087B
:1001B000B5380008B5380008B5380008B53800086B
:0801C000B5380008B53800084D
:1001C80010B5054C237833B9044B13B10448AFF389
:1001D80000800123237010BD0000002000000000F3
:1001E8000039000808B5034B1BB103490348AFF3B6
:1001F800008008BD0000000004000020003900084D
:1002080080B483B000AF0346FB7197F90730002B29
:100218000BDBFB7903F01F02074997F907305B09ED
:10022800012000FA02F241F8232000BF0C37BD4636
:100238005DF8047B704700BF00E100E080B483B044
:1002480000AF0346FB7197F90730002B12DBFB79EF
:1002580003F01F020A4997F907305B09012000FAE9
:1002680002F2203341F82320BFF34F8F00BFBFF3C2
:100278006F8F00BF00BF0C37BD465DF8047B704729
:1002880000E100E080B483B000AF03463960FB7141
:1002980097F90730002B0ADB3B68DAB20C4997F96B
:1002A80007301201D2B20B4483F800230AE03B68FE
:1002B800DAB20849FB7903F00F03043B1201D2B20A
:1002C8000B441A7600BF0C37BD465DF8047B7047B7
:1002D80000E100E000ED00E080B582B000AFA44B83
:1002E8005B6CA34A43F480435364A14B5B6CA04A04
:1002F80043F0806353649E4B1B6B9D4A43F002039B
:1003080013639B4B1B6B9A4A43F004031363984B8C
:100318001B6B974A43F010031363954B1B6B944A6E
:1003280043F400731363924B1B6B914A43F04003F1
:1003380013638F4B1B6B8E4A43F4806313638C4BA0
:100348001B6B8B4A43F480731363894B1B6C884A7D
:1003580043F001031364864B1B6C854A43F0020388
:100368001364834B1B6C824A43F008031364804B6D
:100378001B6C7F4A43F0805313647D4B1B687C4A97
:1003880043F48033136000BF794B1B6803F40033D8
:10039800002BF9D0774B1B68764A43F005031360AE
:1003A800734B5B68724A43F019035360704B5B6888
:1003B8006F4A43F4D84353606D4B5B686C4A23F42F
:1003C800805353606A4B5B68694A43F480335360D7
:1003D800674B9B68664A43F410439360644B5B68C1
:1003E800634A43F480035360614B1B68604A43F0DF
:1003F8008073136000BF5E4B1B6803F00073002B13
:10040800F9D05B4B9B685A4A43F00203936000BFE4
:10041800574B9B6803F00C03082BF9D1544BD3F8C6
:100428008830534A43F44053C2F88830504BD3F8CD
:1004380088304F4A43F0A043C2F888304C4BD3F879
:100448008C304B4A43F48033C2F88C30484BD3F895
:100458008C30474A23F40033C2F88C30444B1B6875
:10046800434A43F08053136000BF414B1B6803F0BD
:100478000053002BF9D0404B1B683F4A43F400530C
:1004880013603D4B1B6A3C4A43F0007313623B4BBD
:100498004FF487629A62394B6422DA62374B002242
:1004A8005A63364B9B69354A43F060039361334B7B
:1004B8001B6A324A43F001031362304B1B682F4A10
:1004C80043F0010313604FF080434FF487629A6250
:1004D8004FF080432A4ADA624FF08043DB684FF0DE
:1004E800804243F00103D36000211C20FFF7CAFEBD
:1004F8001C20FFF785FE4FF080431B684FF08042B9
:1005080043F0010313601F4B1F4A9A621D4B0122DF
:10051800DA621C4BDB681B4A43F00103D3600F21EE
:100528003220FFF7AFFE3220FFF76AFE174B9A68BA
:10053800164948F2880313438B60144BDA68134951
:1005480040F201631343CB60104B5B690F4A43F4DD
:10055800805353610E4B1A680D4948F25B031343ED
:100568000B600B4B9A680A4948F25B0312E000BF24
:1005780000380240003C02400008024000040040ED
:10058800808D5B00000C0040C07A100000380140EC
:10059800003C014013438B600F210620FFF772FED9
:1005A8000F210720FFF76EFE0F210920FFF76AFED3
:1005B8000F210A20FFF766FE0F211720FFF762FEC2
:1005C8000F212820FFF75EFE0620FFF719FE0720FF
:1005D800FFF716FE0920FFF713FE0A20FFF710FEAB
:1005E8001720FFF70DFE2820FFF70AFE62B600BFAE
:1005F800984B1B68974A43F480431360954B9B695B
:10060800944A43F400039361934B1B68924A23F482
:1006180040731360904B1B688F4A43F40073136058
:100628008D4B9B688C4A43F4007393608A4B1B6A1A
:10063800894A23F480331362874B1B6A864A43F442
:1006480060231362854B1B68844A23F04063136060
:10065800824B1B68814A43F0006313607F4B9B68A1
:100668007E4A43F0006393607C4B5B6A7B4A23F4C9
:1006780080135362794B5B6A784A43F46003536290
:10068800764B1B68754A23F040531360734B1B6805
:10069800724A43F000531360704B9B686F4A43F0F3
:1006A800005393606D4B5B6A6C4A23F0807353620E
:1006B8006A4B5B6A694A43F060635362674B1B6825
:1006C800664A23F040431360644B1B68634A43F057
:1006D80000431360614B9B68604A43F0004393609A
:1006E8005E4B5B6A5D4A23F0805353625B4B5B6AE7
:1006F8005A4A43F060435362584B1B68574A23F0E9
:1007080040731360554B1B68544A43F000731360E1
:10071800524B9B68514A43F0007393604F4B5B6A9E
:100728004E4A23F4803353624C4B5B6A4B4A43F482
:10073800602353624A4B1B68494A23F44073136091
:10074800474B1B68464A43F400731360444B9B684D
:10075800434A43F400739360414B1B6A404A23F4B5
:10076800803313623E4B1B6A3D4A43F46023136295
:100778003B4B1B683A4A23F440631360384B1B68B1
:10078800374A43F400631360354B9B68344A43F49B
:1007980000639360324B1B6A314A23F4801313625F
:1007A8002F4B1B6A2E4A43F4600313622C4B1B68C1
:1007B8002B4A23F440531360294B1B68284A43F4FF
:1007C80000531360264B9B68254A43F400539360FB
:1007D800234B1B6A224A23F080731362204B1B6A47
:1007E8001F4A43F0606313621E4B1B681D4A23F0C7
:1007F800404313601B4B1B681A4A43F000431360C5
:10080800184B9B68174A43F000439360154B5B6A8B
:10081800144A23F080535362124B5B6A114A43F027
:10082800604353620D4B1B680C4A23F003031360AB
:100838000A4B1B68094A43F002031360074B9B6885
:10084800064A43F002039360044B1B6A034A23F0F1
:10085800010309E0000802400010024000240240A1
:1008680000280240002002401362994B1B6A984AF4
:1008780043F00E031362964B1B68954A23F00C0352
:100888001360934B1B68924A43F008031360904B24
:100898009B688F4A43F0080393608D4B1B6A8C4A10
:1008A80023F0100313628A4B1B6A894A43F0E00362
:1008B8001362874B1B68864A23F030031360844B0E
:1008C8001B68834A43F020031360814B9B68804A6E
:1008D80043F0200393607E4B1B6A7D4A23F48073A8
:1008E80013627B4B1B6A7A4A43F460631362784B4A
:1008F8001B68774A23F0C0031360754B1B68744A62
:1009080043F080031360724B9B68714A43F0800385
:1009180093606F4B1B6A6E4A23F4805313626C4BCF
:100928001B6A6B4A43F460431362694B1B68684A4D
:1009380023F440731360664B1B68654A43F40073E5
:100948001360634B9B68624A43F400739360604B87
:100958001B6A5F4A23F4803313625D4B1B6A5C4A4F
:1009680043F4602313625A4B1B68594A23F44063CB
:100978001360574B1B68564A43F400631360544B8B
:100988009B68534A43F400639360514B1B6A504A77
:1009980023F4801313624E4B1B6A4D4A43F46003E1
:1009A80013624B4B1B684A4A23F440531360484B6D
:1009B8001B68474A43F400531360454B9B68444AFD
:1009C80043F400539360424B1B6A414A23F08073FF
:1009D80013623F4B1B6A3E4A43F0606313623C4B11
:1009E8001B683B4A23F440431360394B1B68384A61
:1009F80043F400431360364B9B68354A43F4004385
:100A08009360334B1B6A324A23F080531362304B96
:100A18001B6A2F4A43F0604313622D4B1B682C4A14
:100A280023F4403313602A4B1B68294A43F40033EC
:100A38001360274B9B68264A43F400339360244B8A
:100A48005B6A234A23F001035362214B5B6A204A05
:100A580043F00E0353621E4B1B681D4A23F44023C8
:100A680013601B4B1B681A4A43F400231360184B8E
:100A78009B68174A43F400239360154B5B6A144A3A
:100A880023F010035362124B5B6A114A43F0E003F0
:100A980053620F4B1B680E4A23F4401313600C4B30
:100AA8001B680B4A43F400131360094B9B68084A00
:100AB80043F400139360064B5B6A054A23F4807382
:100AC8005362034B5B6A024A43F4606302E000BF6F
:100AD800002402405362974B1B68964A23F4400354
:100AE8001360944B1B68934A43F400031360914BC3
:100AF8009B68904A43F4000393608E4B5B6A8D4A6F
:100B080023F4805353628B4B5B6A8A4A43F46043F5
:100B18005362894B1B68884A23F003031360864B92
:100B28001B68854A43F002031360834B9B68824A23
:100B380043F002039360804B1B6A7F4A23F0010352
:100B480013627D4B1B6A7C4A43F00E0313627A4B97
:100B58001B68794A23F00C031360774B1B68764AAD
:100B680043F008031360744B9B68734A43F008030F
:100B78009360714B1B6A704A23F0100313626E4B2B
:100B88001B6A6D4A43F0E00313626B4B1B686A4AA9
:100B980023F030031360684B1B68674A43F0200357
:100BA8001360654B9B68644A43F020039360624B73
:100BB8001B6A614A23F4807313625F4B1B6A5E4AA7
:100BC80043F4606313625D4B1B685C4A23F4402363
:100BD80013605A4B1B68594A43F400231360574B60
:100BE8009B68564A43F400239360544B5B6A534A0C
:100BF80023F010035362514B5B6A504A43F0E00301
:100C080053624E4B1B684D4A23F4401313604B4B01
:100C18001B684A4A43F400131360484B9B68474AD1
:100C280043F400139360454B5B6A444A23F4807392
:100C38005362424B5B6A414A43F4606353623F4BE1
:100C48001B683E4A23F0405313603C4B1B683B4AE9
:100C580043F000531360394B9B68384A43F0005304
:100C68009360364B5B6A354A23F080735362334B8B
:100C78005B6A324A43F0606353622F4B1B682E4A0B
:100C880023F4404313602C4B1B682B4A43F4004366
:100C98001360294B9B68284A43F400439360264B12
:100CA8001B6A254A23F080531362234B1B6A224A8E
:100CB80043F060431362204B1B681F4A23F0C003B4
:100CC80013601D4B1B681C4A43F0400313601A4B0A
:100CD8009B69194A43F008039361184B1B68174A2C
:100CE80023F040731360154B1B68144A43F080735C
:100CF8001360124B9B69114A43F480539361104B64
:100D08009A680F490F4B13438B600D4BDA680C49F7
:100D18000D4B1343CB600A4B1A6909490B4B13431C
:100D28000B61074B5A690649094B13434B61094B41
:100D38005A6811E0002402400028024000200240C6
:100D48000068014009001D000B002A001B010A026F
:100D58001D012A02046901402849294B13434B60AD
:100D6800264B9A682549274B13438B60234B022255
:100D78001A61224BDA69214940F205431343CB61DA
:100D88001E4BFF225A611D4BDA6A1C491E4B134346
:100D9800CB621A4B1B6B194A43F488731363174BC6
:100DA8001B68164A43F001031360184B5B6A174A25
:100DB80043F002035362154B9B69144A43F0010345
:100DC800936100237B600AE0114A7B6832F81310B4
:100DD800104A7B6822F813107B6801337B607B68BC
:100DE800B3F5FF3FF0DB0C4B9B690B4A43F008035C
:100DF800936100BF0837BD4680BD00BF046901404C
:100E08002B000A020C001B018307800700680140C1
:100E1800FCC50A081C0000200028024080B49BB0D2
:100E280000AF7860396000237B6600233B667B68EF
:100E3800012B01D100237B667B68022B01D126237D
:100E48007B667B68032B01D156237B667B68042B6A
:100E580001D17C237B663B680A2B26D10023FB65E6
:100E680020E00023BB6517E0396E4B1C3B667B6EA8
:100E780041F2F9321A44F86D03461B011B1A5B0153
:100E88001A44BB6D1344A04A32F811109F4A22F845
:100E98001310BB6D0133BB65BB6D202BE4DDFB6D0F
:100EA8000133FB65FB6D392BDBDD3B68002B26D15D
:100EB80000237B6520E000233B6517E0396E4B1C5F
:100EC8003B667B6E41F2F9321A44786D03461B018A
:100ED8001B1A5B011A443B6D13448D4A32F81110FA
:100EE8008A4A22F813103B6D01333B653B6D202B7A
:100EF800E4DD7B6D01337B657B6D392BDBDD3B6886
:100F0800012B26D10023FB6420E00023BB6417E0FB
:100F1800396E4B1C3B667B6E41F2F9321A44F86C11
:100F280003461B011B1A5B011A44BB6C1344794A24
:100F380032F81110754A22F81310BB6C0133BB64E8
:100F4800BB6C202BE4DDFB6C0133FB64FB6C392BA1
:100F5800DBDD3B68022B26D100237B6420E00023E5
:100F68003B6417E0396E4B1C3B667B6E41F2F932ED
:100F78001A44786C03461B011B1A5B011A443B6C2C
:100F88001344654A32F81110604A22F813103B6C7A
:100F980001333B643B6C202BE4DD7B6C01337B64C9
:100FA8007B6C392BDBDD3B68032B26D10023FB63ED
:100FB80020E00023BB6317E0396E4B1C3B667B6E59
:100FC80041F2F9321A44F86B03461B011B1A5B0104
:100FD8001A44BB6B1344514A32F811104B4A22F899
:100FE8001310BB6B0133BB63BB6B202BE4DDFB6BC6
:100FF8000133FB63FB6B392BDBDD3B68042B26D10C
:1010080000237B6320E000233B6317E0396E4B1C11
:101018003B667B6E41F2F9321A44786B03461B013A
:101028001B1A5B011A443B6B13443D4A32F81110FA
:10103800364A22F813103B6B01333B633B6B202B82
:10104800E4DD7B6B01337B637B6B392BDBDD3B683A
:10105800052B26D10023FB6220E00023BB6217E0AA
:10106800396E4B1C3B667B6E41F2F9321A44F86AC2
:1010780003461B011B1A5B011A44BB6A1344294A25
:1010880032F81110214A22F81310BB6A0133BB62EF
:10109800BB6A202BE4DDFB6A0133FB62FB6A392B58
:1010A800DBDD3B68062B26D100237B6220E0002392
:1010B8003B6217E0396E4B1C3B667B6E41F2F9329E
:1010C8001A44786A03461B011B1A5B011A443B6ADF
:1010D8001344154A32F811100C4A22F813103B6ACF
:1010E80001333B623B6A202BE4DD7B6A01337B6280
:1010F8007B6A392BDBDD3B68072B38D10023FB618A
:1011080032E00023BB6129E0443D06081C000020B2
:10111800B8B00008F4650008C4A10008D09200081F
:101128000C48000818390008DC830008396E4B1C8D
:101138003B667B6E41F2F9321A44F86903461B019B
:101148001B1A5B011A44BB6913443A4A32F811105E
:10115800394A22F81310BB690133BB61BB69202BE4
:10116800E4DDFB690133FB61FB69392BC9DD3B68B1
:10117800082B26D100237B6120E000233B6117E088
:10118800396E4B1C3B667B6E41F2F9321A44786922
:1011980003461B011B1A5B011A443B691344274A87
:1011A80032F81110244A22F813103B6901333B61CD
:1011B8003B69202BE4DD7B6901337B617B69392B3B
:1011C800DBDD3B68092B26D10023FB6020E00023F0
:1011D800BB6017E0396E4B1C3B667B6E41F2F932FF
:1011E8001A44F86803461B011B1A5B011A44BB68C2
:1011F8001344134A32F811100F4A22F81310BB682F
:101208000133BB60BB68202BE4DDFB680133FB6066
:10121800FB68392BDBDD0B4B074A9A620A4B5B6A8A
:10122800094A43F00203536200BF6C37BD465DF8BC
:10123800047B7047E87400081C000020ACBF00085D
:1012480000570008046901400068014080B499B063
:1012580000AF786039600023FB650023BB657B68BD
:10126800012B01D10023FB657B68022B01D16E2382
:10127800FB657B68032B01D1F623FB657B68042B98
:1012880002D14FF4B273FB653B68002B26D10023D3
:101298007B6520E000233B6517E0B96D4B1CBB65FF
:1012A800FB6D4AF20D521A44786D03461B011B1A56
:1012B8005B011A443B6D1344A04A32F81110A04A4E
:1012C80022F813103B6D01333B653B6D622BE4DD67
:1012D8007B6D01337B657B6DAD2BDBDD3B68012BC3
:1012E80026D10023FB6420E00023BB6417E0B96D1E
:1012F8004B1CBB65FB6D4AF20D521A44F86C034651
:101308001B011B1A5B011A44BB6C13448D4A32F84B
:1013180011108B4A22F81310BB6C0133BB64BB6CF1
:10132800622BE4DDFB6C0133FB64FB6CAD2BDBDD76
:101338003B68022B26D100237B6420E000233B641A
:1013480017E0B96D4B1CBB65FB6D4AF20D521A4490
:10135800786C03461B011B1A5B011A443B6C13444F
:10136800794A32F81110764A22F813103B6C01338F
:101378003B643B6C622BE4DD7B6C01337B647B6CF0
:10138800AD2BDBDD3B68032B26D10023FB6320E07C
:101398000023BB6317E0B96D4B1CBB65FB6D4AF2BC
:1013A8000D521A44F86B03461B011B1A5B011A44C1
:1013B800BB6B1344654A32F81110614A22F81310C6
:1013C800BB6B0133BB63BB6B622BE4DDFB6B01338F
:1013D800FB63FB6BAD2BDBDD3B68042B26D10023C5
:1013E8007B6320E000233B6317E0B96D4B1CBB65B2
:1013F800FB6D4AF20D521A44786B03461B011B1A07
:101408005B011A443B6B1344514A32F811104C4AA1
:1014180022F813103B6B01333B633B6B622BE4DD1B
:101428007B6B01337B637B6BAD2BDBDD3B68052B73
:1014380026D10023FB6220E00023BB6217E0B96DD0
:101448004B1CBB65FB6D4AF20D521A44F86A034601
:101458001B011B1A5B011A44BB6A13443D4A32F84C
:101468001110374A22F81310BB6A0133BB62BB6AFA
:10147800622BE4DDFB6A0133FB62FB6AAD2BDBDD2B
:101488003B68062B26D100237B6220E000233B62C9
:1014980017E0B96D4B1CBB65FB6D4AF20D521A443F
:1014A800786A03461B011B1A5B011A443B6A134402
:1014B800294A32F81110224A22F813103B6A0133E4
:1014C8003B623B6A622BE4DD7B6A01337B627B6AA9
:1014D800AD2BDBDD3B68072B26D10023FB6120E029
:1014E8000023BB6117E0B96D4B1CBB65FB6D4AF26D
:1014F8000D521A44F86903461B011B1A5B011A4472
:10150800BB691344154A32F811100D4A22F813101A
:10151800BB690133BB61BB69622BE4DDFB69013345
:10152800FB61FB69AD2BDBDD3B68082B39D1002360
:101538007B6133E000233B612AE000BF40030508DC
:101548001C0000205C620208AC7C040818F6030842
:1015580034550108A0CE0008846F0308F0E802089B
:10156800B96D4B1CBB65FB6D4AF20D521A44786984
:1015780003461B011B1A5B011A443B691344254AA5
:1015880032F81110244A22F813103B6901333B61E9
:101598003B69622BE4DD7B6901337B617B69AD2BA1
:1015A800C8DD3B68092B26D10023FB6020E000231F
:1015B800BB6017E0B96D4B1CBB65FB6D4AF20D5261
:1015C8001A44F86803461B011B1A5B011A44BB68DE
:1015D8001344124A32F811100F4A22F81310BB684C
:1015E8000133BB60BB68622BE4DDFB680133FB6041
:1015F800FB68AD2BDBDD0A4B074A9A62094B5B6A35
:10160800084A43F00203536200BF6437BD465DF8E1
:10161800047B7047D48905081C000020C8DB01083A
:10162800046901400068014080B4CDB000AF07F5FF
:101638009873A3F5967318600023C7F82C3107F543
:101648009873A3F596731B68C82B40F09C80002301
:10165800C7F8283129E00023C7F824311CE0D7F85F
:101668002C21531CC7F82C31D7F828110B461B0125
:101678005B1A5B01194641F249330B44D7F8241130
:101688000B44D04931F81210CF4A22F81310D7F87A
:1016980024310133C7F82431D7F82431202BDEDD7B
:1016A800D7F828310133C7F82831D7F82831392B32
:1016B800D1DD0023C7F82C310023C7F8203129E0F9
:1016C8000023C7F81C311CE0D7F82C21531CC7F89D
:1016D8002C31D7F820110B461B015B1A5B01194608
:1016E80041F223330B44D7F81C110B44B54931F8A8
:1016F8001210B54A22F81310D7F81C310133C7F875
:101708001C31D7F81C31202BDEDDD7F8203101330E
:10171800C7F82031D7F82031392BD1DD0023C7F89D
:101728002C310023C7F8183129E00023C7F81431F9
:101738001CE0D7F82C21531CC7F82C31D7F8181106
:101748000B461B015B1A5B01194641F2FD230B4452
:10175800D7F814110B449B4931F812109A4A22F811
:101768001310D7F814310133C7F81431D7F81431EE
:10177800202BDEDDD7F818310133C7F81831D7F838
:101788001831392BD1DD07F59873A3F596731B68CB
:10179800002B40F09C800023C7F8103129E000237B
:1017A800C7F80C311CE0D7F82C21531CC7F82C3192
:1017B800D7F810110B461B015B1A5B01194641F261
:1017C80049330B44D7F80C110B44804931F81210F7
:1017D8007D4A22F81310D7F80C310133C7F80C31C1
:1017E800D7F80C31202BDEDDD7F810310133C7F8DC
:1017F8001031D7F81031392BD1DD0023C7F82C313F
:101808000023C7F8083129E00023C7F804311CE099
:10181800D7F82C21531CC7F82C31D7F808110B46E0
:101828001B015B1A5B01194641F223330B44D7F8BD
:1018380004110B44634931F81210634A22F813105B
:10184800D7F804310133C7F80431D7F80431202B15
:10185800DEDDD7F808310133C7F80831D7F8083189
:10186800392BD1DD0023C7F82C310023C7F800310C
:1018780029E00023C7F8FC301CE0D7F82C21531CC2
:10188800C7F82C31D7F800110B461B015B1A5B0116
:10189800194641F2FD230B44D7F8FC100B44494983
:1018A80031F81210484A22F81310D7F8FC300133E7
:1018B800C7F8FC30D7F8FC30202BDEDDD7F8003134
:1018C8000133C7F80031D7F80031392BD1DD07F5DE
:1018D8009873A3F596731B680A2B40F0A580002324
:1018E800C7F8F83029E00023C7F8F4301CE0D7F82F
:1018F8002C21531CC7F82C31D7F8F8100B461B01C4
:101908005B1A5B01194641F249330B44D7F8F410CE
:101918000B442E4931F812102B4A22F81310D7F82D
:10192800F4300133C7F8F430D7F8F430202BDEDD7B
:10193800D7F8F8300133C7F8F830D7F8F830392B32
:10194800D1DD0023C7F82C310023C7F8F03029E097
:101958000023C7F8EC301CE0D7F82C21531CC7F83B
:101968002C31D7F8F0100B461B015B1A5B011946A6
:1019780041F223330B44D7F8EC100B44144931F8E7
:101988001210114A22F81310D7F8EC300133C7F8B7
:10199800EC30D7F8EC30202BDEDDD7F8F03001330F
:1019A800C7F8F030D7F8F030392BD1DD0023C7F86D
:1019B8002C310023C7F8E83032E00023C7F8E430C0
:1019C80025E000BF443D06081C000020FC960608E0
:1019D800384C0608D7F82C21531CC7F82C31D7F8F7
:1019E800E8100B461B015B1A5B01194641F2FD2307
:1019F8000B44D7F8E4100B44D24931F81210D24AFC
:101A080022F81310D7F8E4300133C7F8E430D7F8D8
:101A1800E430202BDEDDD7F8E8300133C7F8E830B2
:101A2800D7F8E830392BC8DD07F59873A3F5967316
:101A38001B68142B40F09C800023C7F8E03029E095
:101A48000023C7F8DC301CE0D7F82C21531CC7F85A
:101A58002C31D7F8E0100B461B015B1A5B011946C5
:101A680041F249330B44D7F8DC100B44B74931F83D
:101A78001210B54A22F81310D7F8DC300133C7F832
:101A8800DC30D7F8DC30202BDEDDD7F8E03001334E
:101A9800C7F8E030D7F8E030392BD1DD0023C7F89C
:101AA8002C310023C7F8D83029E00023C7F8D430F8
:101AB8001CE0D7F82C21531CC7F82C31D7F8D810C4
:101AC8000B461B015B1A5B01194641F223330B4499
:101AD800D7F8D4100B449E4931F812109A4A22F8CC
:101AE8001310D7F8D4300133C7F8D430D7F8D4302E
:101AF800202BDEDDD7F8D8300133C7F8D830D7F837
:101B0800D830392BD1DD0023C7F82C310023C7F892
:101B1800D03029E00023C7F8CC301CE0D7F82C21BE
:101B2800531CC7F82C31D7F8D0100B461B015B1A91
:101B38005B01194641F2FD230B44D7F8CC100B4446
:101B4800804931F81210804A22F81310D7F8CC30A7
:101B58000133C7F8CC30D7F8CC30202BDEDDD7F8EE
:101B6800D0300133C7F8D030D7F8D030392BD1DD99
:101B780007F59873A3F596731B681E2B40F09C809D
:101B88000023C7F8C83029E00023C7F8C4301CE098
:101B9800D7F82C21531CC7F82C31D7F8C8100B469E
:101BA8001B015B1A5B01194641F249330B44D7F814
:101BB800C4100B44654931F81210634A22F8131017
:101BC800D7F8C4300133C7F8C430D7F8C430202B55
:101BD800DEDDD7F8C8300133C7F8C830D7F8C830C9
:101BE800392BD1DD0023C7F82C310023C7F8C030CA
:101BF80029E00023C7F8BC301CE0D7F82C21531C7F
:101C0800C7F82C31D7F8C0100B461B015B1A5B01D3
:101C1800194641F223330B44D7F8BC100B444D4905
:101C280031F81210484A22F81310D7F8BC300133A3
:101C3800C7F8BC30D7F8BC30202BDEDDD7F8C03071
:101C48000133C7F8C030D7F8C030392BD1DD0023B5
:101C5800C7F82C310023C7F8B83029E00023C7F8AB
:101C6800B4301CE0D7F82C21531CC7F82C31D7F816
:101C7800B8100B461B015B1A5B01194641F2FD23A4
:101C88000B44D7F8B4100B442E4931F812102E4AE1
:101C980022F81310D7F8B4300133C7F8B430D7F8A6
:101CA800B430202BDEDDD7F8B8300133C7F8B830B0
:101CB800D7F8B830392BD1DD07F59873A3F59673AB
:101CC8001B68282B40F0A7800023C7F8B03029E014
:101CD8000023C7F8AC301CE0D7F82C21531CC7F8F8
:101CE8002C31D7F8B0100B461B015B1A5B01194663
:101CF80041F249330B44D7F8AC100B44134931F87F
:101D08001210114A22F81310D7F8AC300133C7F873
:101D1800AC30D7F8AC30202BDEDDD7F8B03001334B
:101D2800C7F8B030D7F8B030392BD1DD0023C7F869
:101D38002C310023C7F8A83034E00023C7F8A430BA
:101D480027E000BF443D06081C000020FC9606085A
:101D58000888060814790608D7F82C21531CC7F8F8
:101D68002C31D7F8A8100B461B015B1A5B011946EA
:101D780041F223330B44D7F8A4100B44C44931F87B
:101D88001210C44A22F81310D7F8A4300133C7F848
:101D9800A430D7F8A430202BDEDDD7F8A8300133E3
:101DA800C7F8A830D7F8A830392BC6DD0023C7F804
:101DB8002C310023C7F8A03029E00023C7F89C3055
:101DC8001CE0D7F82C21531CC7F82C31D7F8A010E9
:101DD8000B461B015B1A5B01194641F2FD230B44BC
:101DE800D7F89C100B44AC4931F81210A94A22F8D4
:101DF8001310D7F89C300133C7F89C30D7F89C30C3
:101E0800202BDEDDD7F8A0300133C7F8A030D7F893
:101E1800A030392BD1DD07F59873A3F596731B68AD
:101E2800322B40F09C800023C7F8983029E000232B
:101E3800C7F894301CE0D7F82C21531CC7F82C3174
:101E4800D7F898100B461B015B1A5B01194641F243
:101E580049330B44D7F894100B44904931F81210C9
:101E68008C4A22F81310D7F894300133C7F894300D
:101E7800D7F89430202BDEDDD7F898300133C7F837
:101E88009830D7F89830392BD1DD0023C7F82C319A
:101E98000023C7F8903029E00023C7F88C301CE0F5
:101EA800D7F82C21531CC7F82C31D7F890100B46C3
:101EB8001B015B1A5B01194641F223330B44D7F827
:101EC8008C100B44764931F81210724A22F813101C
:101ED800D7F88C300133C7F88C30D7F88C30202BEA
:101EE800DEDDD7F890300133C7F89030D7F890305E
:101EF800392BD1DD0023C7F82C310023C7F88830EF
:101F080029E00023C7F884301CE0D7F82C21531CA3
:101F1800C7F82C31D7F888100B461B015B1A5B01F8
:101F2800194641F2FD230B44D7F884100B445A4953
:101F380031F81210574A22F81310D7F884300133B9
:101F4800C7F88430D7F88430202BDEDDD7F8883006
:101F58000133C7F88830D7F88830392BD1DD07F539
:101F68009873A3F596731B683C2B40F0838000237D
:101F7800C7F8803024E00023FB6719E0D7F82C214C
:101F8800531CC7F82C31D7F880100B461B015B1A7D
:101F98005B01194641F249330B44F96F0B443F4941
:101FA80031F812103B4A22F81310FB6F0133FB671C
:101FB800FB6F202BE2DDD7F880300133C7F8803083
:101FC800D7F88030392BD6DD0023C7F82C31002311
:101FD800BB6721E000237B6718E0D7F82C21531C4E
:101FE800C7F82C31B96F0B461B015B1A5B01194608
:101FF80041F223330B44796F0B442A4931F812100C
:10200800244A22F813107B6F01337B677B6F202BE8
:10201800E3DDBB6F0133BB67BB6F392BDADD002310
:10202800C7F82C3100233B6721E00023FB6618E04A
:10203800D7F82C21531CC7F82C31396F0B461B01DC
:102048005B1A5B01194641F2FD230B44F96E0B4400
:10205800114931F812100F4A22F81310FB6E0133A0
:10206800FB66FB6E202BE3DD3B6F01333B673B6F69
:10207800392BDADD07F59873A3F596731B68462BA1
:1020880040F08A800023BB662DE000237B6624E0B5
:102098005C1F06081C000020443D0608FC96060844
:1020A80068100608206A0608D7F82C21531CC7F8C0
:1020B8002C31B96E0B461B015B1A5B01194641F2C4
:1020C80049330B44796E0B44964931F81210964AFD
:1020D80022F813107B6E01337B667B6E202BE3DDC9
:1020E800BB6E0133BB66BB6E392BCEDD0023C7F850
:1020F8002C3100233B6621E00023FB6518E0D7F86C
:102108002C21531CC7F82C31396E0B461B015B1A66
:102118005B01194641F223330B44F96D0B448349A3
:1021280031F81210804A22F81310FB6D0133FB6559
:10213800FB6D202BE3DD3B6E01333B663B6E392B99
:10214800DADD0023C7F82C310023BB6521E000232A
:102158007B6518E0D7F82C21531CC7F82C31B96DD2
:102168000B461B015B1A5B01194641F2FD230B4428
:10217800796D0B446E4931F812106B4A22F813102E
:102188007B6D01337B657B6D202BE3DDBB6D0133FC
:10219800BB65BB6D392BDADD07F59873A3F596732C
:1021A8001B68502B7DD100233B6521E00023FB6495
:1021B80018E0D7F82C21531CC7F82C31396D0B4681
:1021C8001B015B1A5B01194641F249330B44F96C58
:1021D8000B44544931F81210534A22F81310FB6C7F
:1021E8000133FB64FB6C202BE3DD3B6D01333B6566
:1021F8003B6D392BDADD0023C7F82C310023BB6493
:1022080021E000237B6418E0D7F82C21531CC7F881
:102218002C31B96C0B461B015B1A5B01194641F264
:1022280023330B44796C0B44424931F812103E4A6F
:1022380022F813107B6C01337B647B6C202BE3DD6D
:10224800BB6C0133BB64BB6C392BDADD0023C7F8E8
:102258002C3100233B6421E00023FB6318E0D7F80E
:102268002C21531CC7F82C31396C0B461B015B1A07
:102278005B01194641F2FD230B44F96B0B442C49D1
:1022880031F81210284A22F81310FB6B0133FB6354
:10229800FB6B202BE3DD3B6C01333B643B6C392B40
:1022A800DADD07F59873A3F596731B685A2B40F08F
:1022B800D8800023BB6321E000237B6318E0D7F8B4
:1022C8002C21531CC7F82C31B96B0B461B015B1A28
:1022D8005B01194641F249330B44796B0B441149B0
:1022E80031F81210104A22F813107B6B01337B630C
:1022F8007B6B202BE3DDBB6B0133BB63BB6B392BE3
:10230800DADD0023C7F82C3107F59873A3F580733D
:1023180000221A604BE007F59873A3F58273002238
:102328001A6032E0FC9606081C0000202C5B0608A8
:10233800443D0608F0A50608D7F82C21531CC7F819
:102348002C3107F59873A3F5807319680B461B01A8
:102358005B1A5B01194641F223330B4407F5987168
:10236800A1F5827109680B44C54931F81210C54AB4
:1023780022F8131007F59873A3F5827307F598727E
:10238800A2F58272126801321A6007F59873A3F5F4
:1023980082731B68202BCFDD07F59873A3F5807334
:1023A80007F59872A2F58072126801321A6007F573
:1023B8009873A3F580731B68392BACDD0023C7F82D
:1023C8002C3107F59873A3F5847300221A6041E055
:1023D80007F59873A3F5867300221A6028E0D7F8EA
:1023E8002C21531CC7F82C3107F59873A3F5847377
:1023F80019680B461B015B1A5B01194641F2FD2364
:102408000B4407F59871A1F5867109680B449E493C
:1024180031F812109B4A22F8131007F59873A3F5A8
:10242800867307F59872A2F58672126801321A60EF
:1024380007F59873A3F586731B68202BCFDD07F586
:102448009873A3F5847307F59872A2F584721268DD
:1024580001321A6007F59873A3F584731B68392B4A
:10246800B6DD07F59873A3F596731B68642B40F0E7
:10247800F68007F59873A3F5887300221A6041E087
:1024880007F59873A3F58A7300221A6028E0D7F835
:102498002C21531CC7F82C3107F59873A3F58873C2
:1024A80019680B461B015B1A5B01194641F2493357
:1024B8000B4407F59871A1F58A7109680B447349B3
:1024C80031F812106F4A22F8131007F59873A3F524
:1024D8008A7307F59872A2F58A72126801321A6037
:1024E80007F59873A3F58A731B68202BCFDD07F5D2
:1024F8009873A3F5887307F59872A2F58872126825
:1025080001321A6007F59873A3F588731B68392B95
:10251800B6DD0023C7F82C3107F59873A3F58C7343
:1025280000221A6041E007F59873A3F58E73002224
:102538001A6028E0D7F82C21531CC7F82C3107F56E
:102548009873A3F58C7319680B461B015B1A5B0122
:10255800194641F223330B4407F59871A1F58E71A2
:1025680009680B44494931F81210464A22F81310F9
:1025780007F59873A3F58E7307F59872A2F58E7216
:10258800126801321A6007F59873A3F58E731B68F9
:10259800202BCFDD07F59873A3F58C7307F5987298
:1025A800A2F58C72126801321A6007F59873A3F5C8
:1025B8008C731B68392BB6DD0023C7F82C3107F55F
:1025C8009873A3F5907300221A6041E007F5987399
:1025D800A3F5927300221A6028E0D7F82C21531C27
:1025E800C7F82C3107F59873A3F5907319680B4653
:1025F8001B015B1A5B01194641F2FD230B4407F5E9
:102608009871A1F5927109680B44214931F81210AB
:102618001C4A22F8131007F59873A3F5927307F56F
:102628009872A2F59272126801321A6007F59873CF
:10263800A3F592731B68202BCFDD07F59873A3F5DC
:10264800907307F59872A2F59072126801321A60B9
:1026580007F59873A3F590731B68392BB6DD0D4BFE
:10266800084A9A620C4B5B6A0B4A43F002035362B6
:1026780000BF07F59A77BD465DF8047B704700BF39
:10268800502E06081C000020443D0608FC9606084B
:10269800384C0608046901400068014080B489B0DC
:1026A80000AF78600023FB617B68002B26D00023F5
:1026B800BB611FE000237B6116E0FA69531CFB61D4
:1026C800B9690B461B015B1A5B0119464FF2A94316
:1026D8000B4479690B44244931F81210234A22F833
:1026E80013107B6901337B617B690E2BE5DDBB69C8
:1026F8000133BB61BB69592BDCDD25E000233B615D
:102708001FE00023FB6016E0FA69531CFB6139697E
:102718000B461B015B1A5B0119464FF2A9430B4498
:10272800F9680B44124931F81210104A22F81310B4
:10273800FB680133FB60FB680E2BE5DD3B69013369
:102748003B613B69592BDCDD0A4B084A9A620A4B0C
:102758005B6A094A43F00203536200BF2437BD464F
:102768005DF8047B704700BFE4B406081C00002035
:1027780070BF0608046901400068014080B500AFD9
:10278800424B1B7803F00803002B74D0404B1B7896
:10279800002B64D13F4B1B78002B4AD13E4B1B7852
:1027A800002B27D13C4B09221A703A4B05221A708C
:1027B800374B09221A70394B1B78013BDAB2374B79
:1027C8001A70364B1B7819460120FEF73FFD324B35
:1027D8001B7819460220FEF739FD2E4B1B78194647
:1027E8000320FEF733FD2A4B1B7819460420FEF719
:1027F8002DFD40E0274B05221A70254B09221A703F
:10280800254B1B78013BDAB2234B1A70224B1B78FD
:1028180019460220FEF71AFD1E4B1B7819460320A5
:10282800FEF714FD1A4B1B7819460420FEF70EFD1F
:1028380021E0174B09221A70164B1B78013BDAB2BC
:10284800144B1A70134B1B7819460320FEF7FEFC35
:102858000F4B1B7819460420FEF7F8FC0BE00C4BD5
:102868001B78013BDAB20A4B1A70094B1B781946E0
:102878000420FEF7EBFC4FF080431B694FF08042C9
:1028880023F00103136100BF80BD00BF1CFC0320BF
:1028980024FC032025FC032026FC032027FC03201E
:1028A80080B500AF994B1B680133984A1360974B6A
:1028B8001B68974A934231D1964B1B7803F001036A
:1028C800002B2BD0914B00221A60924B1B7803F0FF
:1028D8002003002B0FD10A210320FEF79FFA0A21BB
:1028E8000420FEF79BFA8B4B1B7843F02003DAB2E7
:1028F800884B1A7012E0884B1B7819460320FEF7A4
:102908008DFA864B1B7819460420FEF787FA814B0F
:102918001B7823F02003DAB27E4B1A707B4B1B68BE
:102928007B4A934231D17B4B1B7803F00203002B87
:102938002BD0764B00221A60764B1B7803F01003DD
:10294800002B0FD10A210120FEF768FA0A21022084
:10295800FEF764FA6F4B1B7843F01003DAB26D4B45
:102968001A7012E06E4B1B7819460120FEF756FAD2
:102978006C4B1B7819460220FEF750FA654B1B7802
:1029880023F01003DAB2634B1A70604B1B68604A7D
:10299800934225D15F4B1B7803F00403002B1FD013
:1029A8005A4B00221A605B4B1B7803F04003002B44
:1029B8000AD1C820FEF738FE564B1B7843F0400377
:1029C800DAB2544B1A700BE0574B1B781846FEF7D7
:1029D8002BFE504B1B7823F04003DAB24D4B1A7094
:1029E8004A4B1B68514A93421FD14A4B1B7803F04C
:1029F8000803002B19D0474B1B785BB2002B0ADA6F
:102A0800444B1B7803F07F03DAB2424B1A70002064
:102A1800FFF744FE09E03F4B1B7863F07F03DAB20F
:102A28003C4B1A700120FFF739FE414B1B78002BF5
:102A380048D1404B1B78002B44D13F4B1B78002BCF
:102A480040D13E4B1B78002B3CD1324B1B7803F016
:102A58000803002B36D00620FDF7D2FB0720FDF730
:102A6800CFFB1720FDF7CCFB2820FDF7C9FB294B2E
:102A78001B7823F00103DAB2264B1A70254B1B781A
:102A880023F00203DAB2234B1A70224B1B7823F08F
:102A98000403DAB21F4B1A701E4B1B7823F008038D
:102AA800DAB21C4B1A70264B00225A634FF080434F
:102AB8001B684FF0804223F0010313604FF08043FE
:102AC80000225A621F4B1B6903F04003002B0CD1F4
:102AD8001D4B1B6903F40043002B06D11B4B9B695C
:102AE8001A4A43F08003936105E0184B9B69174A23
:102AF80043F400039361054B1B68154A934202D1C6
:102B0800024B00221A6000BF80BD00BF20FC0320DA
:102B1800A08601001CFC032029FC032028FC0320BC
:102B28002BFC03202AFC03202DFC0320F049020083
:102B380027FC032026FC032025FC032024FC03207B
:102B4800000400400018024000040240000802404F
:102B5800F149020080B584B000AF0023FB73002365
:102B6800BB6015E06C4B1B6903F00103002B0CD014
:102B7800FB7B0133FB7300237B6002E07B6801333E
:102B88007B607B68654A9342F8DDBB680133BB60B4
:102B9800BB68092BE6DD624B1B7803F00803002BAA
:102BA8000CBF01230023DAB2FB7B0A2B0CBF0123E5
:102BB8000023DBB21340DBB2002B00F09780584BA8
:102BC8001B7803F00703022B49D0022B6FDC002B84
:102BD80002D0012B14D06AE0514B1B7843F001035B
:102BE800DAB24F4B1A704F4B1B7819460320FEF789
:102BF80015F94D4B1B7819460420FEF70FF976E0BE
:102C0800474B1B7843F00203DAB2454B1A70444B2A
:102C18001B7823F00103DAB2414B1A70414B1B7841
:102C280019460320FEF7FAF83F4B1B781946042093
:102C3800FEF7F4F83C4B1A783C4B1A70394B1A786B
:102C48003B4B1A703B4B1B7819460120FEF7E6F800
:102C5800394B1B7819460220FEF7E0F847E0304B65
:102C68001B7843F00403DAB22D4B1A702C4B1B78F7
:102C780023F00203DAB22A4B1A702E4B1B7819463E
:102C88000120FEF7CBF82C4B1B7819460220FEF7E3
:102C9800C5F8294B1A78294B1A70264B1A78284BF5
:102CA8001A70284B1B781846FEF7BEFC1FE01C4B19
:102CB8001B7823F00103DAB2194B1A70184B1B78F2
:102CC80023F00203DAB2164B1A70154B1B7823F067
:102CD8000403DAB2124B1A701A4B1A781A4B1A708C
:102CE800184B1B781846FEF79FFC00E000BF002336
:102CF8003B6002E03B6801333B603B68134A934208
:102D0800F8DD134B5B69124A43F00103536100BFBE
:102D18001037BD4680BD00BF00200240407E050040
:102D28001CFC032029FC032028FC032024FC03208E
:102D380025FC03202BFC03202AFC032026FC03206F
:102D480027FC03202DFC03202CFC032080EE3600FA
:102D5800003C014080B584B000AF0023FB73002322
:102D6800BB6015E0944B1B6903F00203002B0CD0E9
:102D7800FB7B0133FB7300237B6002E07B6801333C
:102D88007B607B688D4A9342F8DDBB680133BB608A
:102D9800BB68092BE6DD8A4B1B7803F00803002B80
:102DA80040F0F580864B1B7803F00103002B40F0C0
:102DB800EE80834B1B7803F00203002B40F0E78082
:102DC8007F4B1B7803F00403002B40F0E080FB7B73
:102DD8000A2B40F0DC807B4B1B78032B02D1794B0C
:102DE80000221A70774B1B78022B42D1754B0322B5
:102DF8001A70754B00221A70744B00221A70744BAB
:102E080000221A70734B00221A70734B00221A703A
:102E18006D4B1A78714B1A706C4B1A78704B1A708C
:102E28006B4B1A786F4B1A706A4B1A786E4B1A7084
:102E3800694B1A786D4B1A70634B1B781946012041
:102E4800FDF7ECFF614B1B7819460220FDF7E6FF02
:102E58005F4B1B7819460320FDF7E0FF5D4B1B789D
:102E680019460420FDF7DAFF5B4B1B781846FEF77E
:102E7800DBFB544B1B78012B42D1524B02221A70B8
:102E8800514B02221A70514B05221A70504B0322E3
:102E98001A70504B00221A704F4B64221A704A4B1A
:102EA8001A784E4B1A70494B1A784D4B1A70484B8A
:102EB8001A784C4B1A70474B1A784B4B1A70464B82
:102EC8001A784A4B1A70404B1B7819460120FDF7B7
:102ED800A5FF3E4B1B7819460220FDF79FFF3C4B90
:102EE8001B7819460320FDF799FF3A4B1B781946C2
:102EF8000420FDF793FF384B1B781846FEF794FB28
:102F0800304B1B78002B42D12E4B01221A702E4BCE
:102F180000221A702D4B01221A702D4B00221A70B4
:102F28002C4B00221A702C4B32221A70264B1A781E
:102F38002A4B1A70254B1A78294B1A70244B1A7889
:102F4800284B1A70234B1A78274B1A70224B1A7881
:102F5800264B1A701C4B1B7819460120FDF75EFFA3
:102F68001A4B1B7819460220FDF758FF184B1B789F
:102F780019460320FDF752FF164B1B78194604200B
:102F8800FDF74CFF144B1B781846FEF74DFB00234A
:102F98003B6002E03B6801333B603B68144A934264
:102FA800F8DD144B5B69134A43F00203536100BF19
:102FB8001037BD4680BD00BF00200240407E05009E
:102FC8001CFC03202EFC03202BFC03202AFC0320DE
:102FD80029FC032028FC03202DFC032027FC0320C8
:102FE80026FC032025FC032024FC03202CFC0320C2
:102FF80080EE3600003C014080B584B000AF00236D
:10300800FB730023BB6015E0564B1B6903F00803F4
:10301800002B0CD0FB7B0133FB7300237B6002E0A9
:103028007B6801337B607B684F4A9342F8DDBB685D
:103038000133BB60BB68092BE6DD4C4B1B7803F002
:103048000803002B5AD1494B1B7803F00103002BCE
:1030580054D1464B1B7803F00203002B4ED1434B4F
:103068001B7803F00403002B48D1FB7B0A2B45D1C6
:103078003E4B1B7843F00803DAB23C4B1A703B4BCB
:103088001B7863F07F03DAB2384B1A70384B1A7822
:10309800384B5A634FF0804300225A624FF0804306
:1030A8001B684FF0804243F001031360324B1B78DA
:1030B80019460120FEF7CAF8304B1B781946022042
:1030C800FEF7C4F82E4B1B7819460320FEF7BEF80E
:1030D8002C4B1B7819460420FEF7B8F82A4B00221F
:1030E8001A700620FDF7AAF80720FDF7A7F81720A1
:1030F800FDF7A4F82820FDF7A1F81FE04FF0804362
:103108001B684FF0804223F0010313604FF08043A7
:1031180000225A62174B00225A63144B1B7823F083
:103128000803DAB2114B1A70104B1B7803F07F03B7
:10313800DAB20E4B1A700120FFF7B0FA00233B6099
:1031480002E03B6801333B603B68104A9342F8DD7C
:103158000F4B5B690E4A43F00803536100BF1037F9
:10316800BD4680BD00200240407E05001CFC0320B7
:103178002CFC03200004004027FC032026FC03202D
:1031880025FC032024FC03202EFC032080EE3600BF
:10319800003C014080B584B000AF0023FB730023DE
:1031A800BB6015E05A4B1B6903F01003002B0CD0D1
:1031B800FB7B0133FB7300237B6002E07B680133F8
:1031C8007B607B68534A9342F8DDBB680133BB6080
:1031D800BB68092BE6DDFB7B0A2B40F085804E4B54
:1031E8001B7823F00103DAB24B4B1A704A4B1B7859
:1031F80023F00203DAB2484B1A70474B1B7823F0CE
:103208000403DAB2444B1A70434B1B7823F00803CB
:10321800DAB2414B1A70404B1B7803F07F03DAB2E5
:103228003D4B1A703D4B00225A634FF080431B6898
:103238004FF0804223F0010313604FF080430022D7
:103248005A62374B00221A70364B00221A70364BDE
:1032580000221A70354B00221A70354B00221A7062
:10326800344B00221A70344B00221A70334B002260
:103278001A70334B00221A70324B00221A702D4BF1
:1032880000221A7000210120FDF7E0FF0021022032
:10329800FDF7DCFF00210320FDF7D8FF0021042003
:1032A800FDF7D4FF00210120FDF7B8FD0021022021
:1032B800FDF7B4FD00210320FDF7B0FD0021042037
:1032C800FDF7ACFD0020FEF7AFF90120FFF7E6F9A6
:1032D8000620FCF795FF0720FCF792FF1720FCF764
:1032E8008FFF2820FCF78CFF00233B6002E03B683F
:1032F80001333B603B68144A9342F8DD134B5B692A
:10330800124A43F01003536100BF1037BD4680BD19
:1033180000040240407E05001CFC0320000400401D
:103328002CFC032024FC032025FC032026FC03207E
:1033380027FC03202DFC032028FC032029FC032064
:103348002AFC03202BFC032080EE3600003C0140C1
:1033580080B485B000AF0023FB730023BB6015E089
:103368005B4B1B6903F04003002B0CD0FB7B013344
:10337800FB7300237B6002E07B6801337B607B6822
:10338800544A9342F8DDBB680133BB60BB68092B24
:10339800E6DDFB7B0A2B40F084804F4B1B7803F063
:1033A8000203002B33D04D4B1B781A464C4B1B782D
:1033B8001344002B2BD04A4B1B78002B09D1474BC9
:1033C8001B78013BDAB2454B1A70454B09221A703B
:1033D8001DE0434B1B78002B13D1404B1B78002B6F
:1033E80009D03E4B1B78013BDAB23C4B1A703C4B80
:1033F80009221A7005E03A4B00221A70374B002256
:103408001A70374B1B78013BDAB2354B1A70324BC6
:103418001B7803F00103002B33D0324B1B781A467C
:10342800314B1B781344002B2BD02E4B1B78002BD1
:1034380009D12D4B1B78013BDAB22B4B1A70294B63
:1034480009221A701DE0274B1B78002B13D1264B3D
:103458001B78002B09D0244B1B78013BDAB2224B96
:103468001A70204B09221A7005E01E4B00221A70B0
:103478001D4B00221A701B4B1B78013BDAB2194B0B
:103488001A70154B1B7803F00403002B09D0174B57
:103498001B78002B05D0154B1B780A3BDAB2134B6F
:1034A8001A7000233B6002E03B6801333B603B68D5
:1034B8000F4A9342F8DD0F4B5B690E4A43F0400315
:1034C800536100BF1437BD465DF8047B704700BFE9
:1034D80000180240407E05001CFC03202BFC032042
:1034E8002AFC032028FC032029FC03202DFC0320B0
:1034F80080EE3600003C014080B485B000AF002368
:10350800FB730023BB6015E0414B1B6903F40043C8
:10351800002B0CD0FB7B0133FB7300237B6002E0A4
:103528007B6801337B607B683A4A9342F8DDBB686D
:103538000133BB60BB68092BE6DDFB7B0A2B51D14D
:10354800354B1B7803F00203002B1AD0334B1B7842
:103558001A46334B1B781344122B12D0304B1B786E
:103568000133DAB22E4B1A702D4B1B780A2B08D177
:103578002A4B1B780133DAB2284B1A70284B0022E9
:103588001A70254B1B7803F00103002B1AD0254B2A
:103598001B781A46244B1B781344122B12D0214B4C
:1035A8001B780133DAB21F4B1A701E4B1B780A2B9B
:1035B80008D11D4B1B780133DAB21B4B1A70194B1B
:1035C80000221A70144B1B7803F00403002B09D057
:1035D800164B1B78642B05D0144B1B780A33DAB2D0
:1035E800124B1A7000233B6002E03B6801333B60DA
:1035F8003B680F4A9342F8DD0E4B5B690D4A43F472
:103608000043536100BF1437BD465DF8047B704723
:1036180000040240407E05001CFC03202BFC032014
:103628002AFC032028FC032029FC03202DFC03206E
:1036380080EE3600003C014080B582B000AFFCF758
:103648004BFE744B744A9A62744B5B6A734A43F03C
:103658000203536200237B6002E07B6801337B60D6
:103668007B686F4A9342F8DD6A4B6E4A9A626B4BED
:103678005B6A6A4A43F0020353626B4B1B78194634
:103688000120FDF7E3FD694B1B7819460220FDF781
:10369800DDFD674B1B7819460320FDF7D7FD654B09
:1036A8001B7819460420FDF7D1FD5F4B1B7819469E
:1036B8000120FDF7B3FB5D4B1B7819460220FDF78F
:1036C800ADFB5B4B1B7819460320FDF7A7FB594B55
:1036D8001B7819460420FDF7A1FB574B1B781846A9
:1036E800FDF7A2FF554B1B68544A43F001031360D2
:1036F8004FF080431B684FF0804223F001031360B2
:103708004FF0804300225A624D4B1B7823F001038F
:10371800DAB24B4B1A704A4B1B7823F00203DAB229
:10372800474B1A70464B1B7823F00403DAB2444B1C
:103738001A70434B1B7823F00803DAB2404B1A7017
:103748003F4B1B7803F07F03DAB23D4B1A703D4BB9
:1037580000225A634FF080431B684FF0804223F0E9
:10376800010313604FF0804300225A62324B00225B
:103778001A70304B00221A702D4B00221A702B4BF6
:1037880000221A70284B00221A702F4B00221A7040
:103798002E4B00221A702E4B00221A702D4B00223D
:1037A8001A702D4B00221A70274B00221A70002124
:1037B8000120FDF74BFD00210220FDF747FD002108
:1037C8000320FDF743FD00210420FDF73FFD002104
:1037D8000120FDF723FB00210220FDF71FFB00213C
:1037E8000320FDF71BFB00210420FDF717FB002039
:1037F800FDF71AFF0120FEF751FF0620FCF700FD38
:103808000720FCF7FDFC1720FCF7FAFC2820FCF742
:10381800F7FCFEE704690140FCC90608006801409E
:10382800404B4C00FCC50A0827FC032026FC03205B
:1038380025FC032024FC03202CFC0320000C004062
:103848001CFC0320000400402DFC032028FC03205E
:1038580029FC03202AFC03202BFC03200D48854665
:10386800AFF300800C480D490D4A002302E0D458FC
:10387800C4500433C4188C42F9D30A4A0A4C0023B2
:1038880001E013600432A242FBD300F011F8FFF705
:10389800D3FEFEE700000520000000200000002005
:1038A80004C20E080000002030FC0320FEE70000E0
:1038B80070B50D4D0D4C641BA4100026A64209D10D
:1038C8000B4D0C4C00F018F8641BA4100026A642FF
:1038D80005D170BD55F8043B98470136EEE755F819
:1038E800043B98470136F2E7FCC10E08FCC10E08FC
:1038F800FCC10E0800C20E08F8B500BFF8BC08BC31
:103908009E467047F8B500BFF8BC08BC9E46704795
:10391800FF07FF07FF07FF07FF07FF07FF07FF076F
:10392800000000000000000000000000000000008F
:10393800000000000000000000000000000000007F
:103948000000FF07FF07FF07FF07FF07FF07FF0745
:10395800FF07FF07FF07FF07FF07FF07FF07FF072F
:103968000000E4E8E4E8E4E8E4E8E4E8E4E8E4E8BB
:10397800E4E8E4E8E4E8E4E8E4E8E4E8E4E8E4E8DF
:10398800E4E8E4E80000FF07FF07FF07FF07FF0779
:10399800FF07FF07FF07FF07FF07FF07FF07FF07EF
:1039A8000000E4E8E4E8E4E8E4E8E4E8E4E8E4E87B
:1039B800E4E8E4E8E4E8E4E8E4E8E4E8E4E8E4E89F
:1039C800E4E8E4E8E4E8E4E80000FF07FF07FF07AD
:1039D800FF07FF07FF07FF07FF07FF07FF07FF07AF
:1039E8000000E4E8E4E8E4E8E4E8E4E8E4E8E4E83B
:1039F800E4E8E4E8E4E8E4E8E4E8E4E8E4E8E4E85F
:103A0800E4E8E4E8E4E8E4E8E4E8E4E80000FF07E0
:103A1800FF07FF07FF07FF07FF07FF07FF07FF076E
:103A2800FF070000E4E8E4E8E4E8E4E8E4E8E4E8C0
:103A3800E4E8E4E8E4E8E4E8E4E8E4E8E4E8E4E81E
:103A4800E4E8E4E8E4E8E4E8E4E8E4E8E4E80000DA
:103A5800FF07FF07FF07FF07FF07FF07FF07FF072E
:103A680000000000FF070000E4E8E4E8E4E8E4E818
:103A7800E4E8E4E8E4E8E4E8E4E8E4E8E4E8E4E8DE
:103A8800E4E8E4E8E4E8E4E8E4E8E4E8E4E800009A
:103A9800FF07FF07FF07FF07FF07FF07FF07FF07EE
:103AA8000000E4E8E4E80000FF070000E4E8E4E8D8
:103AB800E4E8E4E8E4E8E4E8E4E8E4E8E4E8E4E89E
:103AC800E4E8E4E8E4E8E4E8E4E8E4E8E4E800005A
:103AD800FF07FF07FF07FF07FF07FF07FF07FF07AE
:103AE8000000E4E8E4E8E4E8E4E80000FF07000098
:103AF80000000000000000000000000000000000BE
:103B080000000000000000000000000000000000AD
:103B1800FF07FF07FF07FF07FF07FF07FF07FF076D
:103B28000000E4E8E4E8E4E8E4E8E4E8E4E80000C5
:103B3800FF07FF07FF07FF07FF07FF07FF07FF074D
:103B4800FF07FF07FF07FF07FF07FF07FF07FF073D
:103B5800FF07FF07FF07FF07FF07FF07FF07FF072D
:103B6800FF070000E4E8E4E8E4E8E4E8E4E8E4E87F
:103B78000000FF07FF07FF07FF07FF07FF07FF0713
:103B8800FF07FF07FF07FF07FF07FF07FF07FF07FD
:103B9800FF07FF07FF07FF07FF07FF07FF07FF07ED
:103BA800FF07FF070000E4E8E4E8E4E8E4E8E4E805
:103BB800E4E80000FF07FF07FF07FF07FF07FF070D
:103BC800FF07FF07FF07FF07FF07FF07FF07FF07BD
:103BD800FF07FF07FF07FF07FF07FF07FF07FF07AD
:103BE800FF07FF07FF070000E4E8E4E8E4E8E4E88B
:103BF800E4E8E4E80000FF07FF07FF07FF07FF0707
:103C0800FF07FF07FF07FF07FF07FF07FF07FF077C
:103C1800FF07FF07FF07FF07FF07FF07FF07FF076C
:103C2800FF07FF07FF07FF070000E4E8E4E8E4E810
:103C3800E4E8E4E8E4E80000FF07FF07FF07FF0700
:103C4800FF07FF07FF07FF07FF07FF07FF07FF073C
:103C5800FF07FF07FF07FF07FF07FF07FF07FF072C
:103C6800FF07FF07FF07FF07FF070000E4E8E4E896
:103C7800E4E8E4E8E4E8E4E80000FF07FF07FF07FA
:103C8800FF07FF07FF07FF07FF07FF07FF07FF07FC
:103C9800FF07FF07FF07FF07FF07FF07FF07FF07EC
:103CA800FF07FF07FF07FF07FF07FF070000E4E81C
:103CB800E4E8E4E8E4E8E4E8E4E80000FF07FF07F4
:103CC800FF07FF07FF07FF07FF07FF07FF07FF07BC
:103CD800FF07FF07FF07FF07FF07FF07FF07FF07AC
:103CE800FF07FF07FF07FF07FF07FF07FF070000A2
:103CF800E4E8E4E8E4E8E4E8E4E8E4E80000FF07EE
:103D0800FF07FF07FF07FF07FF07FF07FF07FF077B
:103D1800FF07FF07FF07FF07FF07FF07FF07FF076B
:103D2800FF07FF07FF07FF07FF07FF07FF07FF075B
:103D38000000E4E8E4E8E4E8E4E8E4E8E4E80000B3
:103D4800FF07FF07FF07FF07FF07FF07FF07FF073B
:103D5800FF07FF07FF07FF07FF07FF07FF07FF072B
:103D6800FF07FF07FF07FF07FF07FF07FF07FF071B
:103D7800FF070000E4E8E4E8E4E8E4E8E4E8E4E86D
:103D88000000FF07FF07FF07FF07FF07FF07FF0701
:103D9800FF07FF07FF07FF07FF07FF07FF07FF07EB
:103DA800FF07FF07FF07FF07FF07FF07FF07FF07DB
:103DB800FF07FF070000E4E8E4E8E4E8E4E8E4E8F3
:103DC800E4E80000FF07FF07FF07FF07FF07FF07FB
:103DD800FF07FF07FF07FF07FF07FF07FF07FF07AB
:103DE800FF07FF07FF07FF07FF07FF07FF07FF079B
:103DF800FF07FF07FF070000E4E8E4E8E4E8E4E879
:103E0800E4E8E4E80000FF07FF07FF07FF07FF07F4
:103E1800FF07FF07FF07FF07FF07FF07FF07FF076A
:103E2800FF07FF07FF07FF07FF07FF07FF07FF075A
:103E3800FF07FF07FF07FF070000E4E8E4E8E4E8FE
:103E4800E4E8E4E8E4E80000FF07FF07FF07FF07EE
:103E5800FF07FF07FF07FF07FF07FF07FF07FF072A
:103E6800FF07FF07FF07FF07FF07FF07FF07FF071A
:103E7800FF07FF07FF07FF07FF070000E4E8E4E884
:103E8800E4E8E4E8E4E8E4E80000FF07FF07FF07E8
:103E9800FF07FF07FF07FF07FF07FF07FF07FF07EA
:103EA800FF07FF07FF07FF07FF07FF07FF07FF07DA
:103EB800FF07FF07FF07FF07FF07FF070000E4E80A
:103EC800E4E8E4E8E4E8E4E8E4E80000FF07FF07E2
:103ED800FF07FF07FF07FF07FF07FF07FF07FF07AA
:103EE800FF07FF07FF07FF07FF07FF07FF07FF079A
:103EF800FF07FF07FF07FF07FF07FF07FF07000090
:103F0800E4E8E4E8E4E8E4E8E4E8E4E80000FF07DB
:103F1800FF07FF07FF07FF07FF07FF07FF07FF0769
:103F2800FF07FF07FF07FF07FF07FF07FF07FF0759
:103F3800FF07FF07FF07FF07FF07FF07FF07FF0749
:103F48000000E4E8E4E8E4E8E4E8E4E8E4E80000A1
:103F5800FF07FF07FF07FF07FF07FF07FF07FF0729
:103F6800FF07FF07FF07FF07FF07FF07FF07FF0719
:103F7800FF07FF07FF07FF07FF07FF07FF07FF0709
:103F8800FF07FF070000E4E8E4E8E4E8E4E80000ED
:103F9800FF07000000000000000000000000000013
:103FA8000000000000000000000000000000000009
:103FB80000000000FF07FF07FF07FF07FF07FF07D5
:103FC800FF07FF07FF07FF070000E4E8E4E8000039
:103FD800FF070000E4E8E4E8E4E8E4E8E4E8E4E80B
:103FE800E4E8E4E8E4E8E4E8E4E8E4E8E4E8E4E869
:103FF800E4E8E4E8E4E80000FF07FF07FF07FF073D
:10400800FF07FF07FF07FF07FF07FF070000000084
:10401800FF070000E4E8E4E8E4E8E4E8E4E8E4E8CA
:10402800E4E8E4E8E4E8E4E8E4E8E4E8E4E8E4E828
:10403800E4E8E4E8E4E8E4E8E4E80000FF07FF0770
:10404800FF07FF07FF07FF07FF07FF07FF07FF0738
:10405800FF070000E4E8E4E8E4E8E4E8E4E8E4E88A
:10406800E4E8E4E8E4E8E4E8E4E8E4E8E4E8E4E8E8
:10407800E4E8E4E8E4E8E4E8E4E8E4E8E4E80000A4
:10408800FF07FF07FF07FF07FF07FF07FF07FF07F8
:10409800FF07FF070000E4E8E4E8E4E8E4E8E4E810
:1040A800E4E8E4E8E4E8E4E8E4E8E4E8E4E8E4E8A8
:1040B800E4E8E4E8E4E8E4E8E4E8E4E8E4E8E4E898
:1040C8000000FF07FF07FF07FF07FF07FF07FF07BE
:1040D800FF07FF07FF07FF070000E4E8E4E8E4E85C
:1040E800E4E8E4E8E4E8E4E8E4E8E4E8E4E8E4E868
:1040F800E4E8E4E8E4E8E4E8E4E8E4E8E4E8E4E858
:104108000000FF0700000000FF07FF07FF07FF0789
:10411800FF07FF07FF07FF07FF07FF070000E4E8A7
:10412800E4E8E4E8E4E8E4E8E4E8E4E8E4E8E4E827
:10413800E4E8E4E8E4E8E4E8E4E8E4E8E4E8E4E817
:104148000000FF070000E4E8E4E80000FF07FF07BD
:10415800FF07FF07FF07FF07FF07FF07FF07FF0727
:104168000000000000000000000000000000000047
:104178000000000000000000000000000000000037
:104188000000FF070000E4E8E4E8E4E8E4E80000F1
:10419800FF07FF07FF07FF07FF07FF07FF07FF07E7
:1041A800FF07FF07FF07FF07FF07FF07FF07FF07D7
:1041B800FF07FF07FF07FF07FF07FF07FF07FF07C7
:1041C800FF07FF070000E4E8E4E8E4E8E4E8E4E8DF
:1041D800E4E80000FF07FF07FF07FF07FF07FF07E7
:1041E800FF07FF07FF07FF07FF07FF07FF07FF0797
:1041F800FF07FF07FF07FF07FF07FF07FF07FF0787
:10420800FF07FF07FF070000E4E8E4E8E4E8E4E864
:10421800E4E8E4E80000FF07FF07FF07FF07FF07E0
:10422800FF07FF07FF07FF07FF07FF07FF07FF0756
:10423800FF07FF07FF07FF07FF07FF07FF07FF0746
:10424800FF07FF07FF07FF070000E4E8E4E8E4E8EA
:10425800E4E8E4E8E4E80000FF07FF07FF07FF07DA
:10426800FF07FF07FF07FF07FF07FF07FF07FF0716
:10427800FF07FF07FF07FF07FF07FF07FF07FF0706
:10428800FF07FF07FF07FF07FF070000E4E8E4E870
:10429800E4E8E4E8E4E8E4E80000FF07FF07FF07D4
:1042A800FF07FF07FF07FF07FF07FF07FF07FF07D6
:1042B800FF07FF07FF07FF07FF07FF07FF07FF07C6
:1042C800FF07FF07FF07FF07FF07FF070000E4E8F6
:1042D800E4E8E4E8E4E8E4E8E4E80000FF07FF07CE
:1042E800FF07FF07FF07FF07FF07FF07FF07FF0796
:1042F800FF07FF07FF07FF07FF07FF07FF07FF0786
:10430800FF07FF07FF07FF07FF07FF07FF0700007B
:10431800E4E8E4E8E4E8E4E8E4E8E4E80000FF07C7
:10432800FF07FF07FF07FF07FF07FF07FF07FF0755
:10433800FF07FF07FF07FF07FF07FF07FF07FF0745
:10434800FF07FF07FF07FF07FF07FF07FF07FF0735
:104358000000E4E8E4E8E4E8E4E8E4E8E4E800008D
:10436800FF07FF07FF07FF07FF07FF07FF07FF0715
:10437800FF07FF07FF07FF07FF07FF07FF07FF0705
:10438800FF07FF07FF07FF07FF07FF07FF07FF07F5
:10439800FF070000E4E8E4E8E4E8E4E8E4E8E4E847
:1043A8000000FF07FF07FF07FF07FF07FF07FF07DB
:1043B800FF07FF07FF07FF07FF07FF07FF07FF07C5
:1043C800FF07FF07FF07FF07FF07FF07FF07FF07B5
:1043D800FF07FF070000E4E8E4E8E4E8E4E8E4E8CD
:1043E800E4E80000FF07FF07FF07FF07FF07FF07D5
:1043F800FF07FF07FF07FF07FF07FF07FF07FF0785
:10440800FF07FF07FF07FF07FF07FF07FF07FF0774
:10441800FF07FF07FF070000E4E8E4E8E4E8E4E852
:10442800E4E8E4E80000FF07FF07FF07FF07FF07CE
:10443800FF07FF07FF07FF07FF07FF07FF07FF0744
:10444800FF07FF07FF07FF07FF07FF07FF07FF0734
:10445800FF07FF07FF07FF070000E4E8E4E8E4E8D8
:10446800E4E8E4E8E4E80000FF07FF07FF07FF07C8
:10447800FF07FF07FF07FF07FF07FF07FF07FF0704
:10448800FF07FF07FF07FF07FF07FF07FF07FF07F4
:10449800FF07FF07FF07FF07FF070000E4E8E4E85E
:1044A800E4E8E4E8E4E8E4E80000FF07FF07FF07C2
:1044B800FF07FF07FF07FF07FF07FF07FF07FF07C4
:1044C800FF07FF07FF07FF07FF07FF07FF07FF07B4
:1044D800FF07FF07FF07FF07FF07FF070000E4E8E4
:1044E800E4E8E4E8E4E8E4E8E4E80000FF07FF07BC
:1044F800FF07FF07FF07FF07FF07FF07FF07FF0784
:10450800FF07FF07FF07FF07FF07FF07FF07FF0773
:10451800FF07FF07FF07FF07FF07FF07FF07000069
:10452800E4E8E4E8E4E8E4E8E4E8E4E80000FF07B5
:10453800FF07FF07FF07FF07FF07FF07FF07FF0743
:10454800FF07FF07FF07FF07FF07FF07FF07FF0733
:10455800FF07FF07FF07FF07FF07FF07FF07FF0723
:104568000000E4E8E4E8E4E8E4E8E4E8E4E800007B
:10457800FF07FF07FF07FF07FF07FF07FF07FF0703
:10458800FF07FF07FF07FF07FF07FF07FF07FF07F3
:10459800FF07FF07FF07FF07FF07FF07FF07FF07E3
:1045A800FF070000E4E8E4E8E4E8E4E8E4E8E4E835
:1045B8000000FF07FF07FF07FF07FF07FF07FF07C9
:1045C800FF07FF07FF07FF07FF07FF07FF07FF07B3
:1045D800FF07FF07FF07FF07FF07FF07FF07FF07A3
:1045E800FF07FF070000E4E8E4E8E4E8E4E8E4E8BB
:1045F800E4E80000FF07FF07FF07FF07FF07FF07C3
:10460800FF07FF0700000000000000000000000096
:104618000000000000000000000000000000000092
:10462800000000000000FF070000E4E8E4E8E4E818
:10463800E4E80000FF07FF07FF07FF07FF07FF0782
:10464800FF07FF070000E4E8E4E8E4E8E4E8E4E85A
:10465800E4E8E4E8E4E8E4E8E4E8E4E8E4E8E4E8F2
:10466800E4E8E4E8E4E8E4E80000FF070000E4E840
:10467800E4E80000FF07FF07FF07FF07FF07FF0742
:10468800FF07FF070000E4E8E4E8E4E8E4E8E4E81A
:10469800E4E8E4E8E4E8E4E8E4E8E4E8E4E8E4E8B2
:1046A800E4E8E4E8E4E8E4E8E4E8E4E80000FF0734
:1046B80000000000FF07FF07FF07FF07FF07FF07CE
:1046C800FF07FF070000E4E8E4E8E4E8E4E8E4E8DA
:1046D800E4E8E4E8E4E8E4E8E4E8E4E8E4E8E4E872
:1046E800E4E8E4E8E4E8E4E8E4E8E4E8E4E8E4E862
:1046F8000000FF07FF07FF07FF07FF07FF07FF0788
:10470800FF07FF07FF070000E4E8E4E8E4E8E4E85F
:10471800E4E8E4E8E4E8E4E8E4E8E4E8E4E8E4E831
:10472800E4E8E4E8E4E8E4E8E4E8E4E8E4E8E4E821
:10473800E4E80000FF07FF07FF07FF07FF07FF0781
:10474800FF07FF07FF07FF07FF070000E4E8E4E8AB
:10475800E4E8E4E8E4E8E4E8E4E8E4E8E4E8E4E8F1
:10476800E4E8E4E8E4E8E4E8E4E8E4E8E4E8E4E8E1
:10477800E4E80000FF07FF07FF07FF07FF07FF0741
:10478800FF07FF07FF07FF07FF07FF07FF070000F7
:10479800E4E8E4E8E4E8E4E8E4E8E4E8E4E8E4E8B1
:1047A800E4E8E4E8E4E8E4E8E4E8E4E8E4E8E4E8A1
:1047B800E4E80000FF07FF07FF07FF07FF07FF0701
:1047C800FF07FF07FF07FF07FF07FF07FF07FF07B1
:1047D800FF070000000000000000000000000000CB
:1047E80000000000000000000000000000000000C1
:1047F80000000000FF07FF07FF07FF07FF07FF078D
:10480800FF07FF07FF07FF07FF07FF07FF07FF0770
:10481800FF07FF07FF07FF07FF07FF07FF07FF0760
:10482800FF07FF07FF07FF07FF07FF07FF07FF0750
:10483800FF07FF07FF07FF07FF07FF07FF07FF0740
:10484800FF07FF07FF07FF07FF07FF07FF07FF0730
:10485800FF07FF07FF07FF07FF07FF07FF07FF0720
:10486800FF07FF07FF07FF07FF07FF07FF07FF0710
:10487800FF07FF07FF07FF07FF07FF07FF07FF0700
:10488800FF07FF07FF07FF07FF07FF07FF07FF07F0
:10489800FF07FF07FF07FF07FF07FF07FF07FF07E0
:1048A800FF07FF07FF07FF07FF07FF07FF07FF07D0
:1048B800FF07FF07FF07FF07FF07FF07FF07FF07C0
:1048C800FF07FF07FF07FF07FF07FF07FF07FF07B0
:1048D800FF07FF07FF07FF07FF07FF07FF07FF07A0
:1048E800FF07FF07FF07FF07FF07FF07FF07FF0790
:1048F800FF07FF07FF07FF07FF07FF07FF07FF0780
:10490800FF07FF07FF07FF07FF07FF07FF07FF076F
:10491800FF07FF07FF07FF07FF07FF07FF07FF075F
:10492800FF07FF07FF07FF07FF07FF07FF07FF074F
:10493800FF07FF07FF07FF07FF07FF07FF07FF073F
:10494800FF07FF07FF07FF07FF07FF07FF07FF072F
:10495800FF07FF0700000000FF07FF07FF07FF072B
:10496800FF07FF07FF07FF07FF07FF07FF07FF070F
:10497800FF07FF07FF07FF07FF07FF07FF07FF07FF
:10498800FF07FF07FF0700000000FF07FF07FF07FB
:10499800FF07FF070000E4E8E4E80000FF07FF075F
:1049A800FF07FF07FF07FF07FF07FF07FF07FF07CF
:1049B800FF07FF07FF07FF07FF07FF07FF07FF07BF
:1049C800FF07FF07FF070000E4E8E4E80000FF072F
:1049D800FF07FF070000E4E8E4E8E4E8E4E8000093
:1049E800FF07FF07FF07FF07FF07FF07FF07FF078F
:1049F800FF07FF07FF07FF07FF07FF07FF07FF077F
:104A0800FF07FF07FF070000E4E8E4E8E4E8E4E85C
:104A18000000FF070000E4E8E4E8E4E8E4E8E4E88C
:104A2800E4E80000FF07FF07FF07FF07FF07FF078E
:104A3800FF07FF07FF07FF07FF07FF07FF07FF073E
:104A4800FF07FF07FF070000E4E8E4E8E4E8E4E81C
:104A5800E4E8E4E800000000E4E8E4E8E4E8E4E886
:104A6800E4E8E4E80000FF07FF07FF07FF07FF0788
:104A7800FF07FF07FF07FF07FF07FF07FF07FF07FE
:104A8800FF07FF07FF07FF070000E4E8E4E8E4E8A2
:104A9800E4E8E4E8E4E800000000E4E8E4E8E4E846
:104AA800E4E8E4E8E4E80000FF07FF07FF07FF0782
:104AB800FF07FF07FF07FF07FF07FF07FF07FF07BE
:104AC800FF07FF07FF07FF07FF070000E4E8E4E828
:104AD800E4E8E4E8E4E8E4E800000000E4E8E4E806
:104AE800E4E8E4E8E4E8E4E80000FF07FF07FF077C
:104AF800FF07FF07FF07FF07FF07FF07FF07FF077E
:104B0800FF07FF07FF07FF07FF07FF070000E4E8AD
:104B1800E4E8E4E8E4E8E4E8E4E800000000E4E8C5
:104B2800E4E8E4E8E4E8E4E8E4E80000FF07FF0775
:104B3800FF07FF07FF07FF07FF07FF07FF07FF073D
:104B4800FF07FF07FF07FF07FF07FF07FF07000033
:104B5800E4E8E4E8E4E8E4E8E4E8E4E80000000085
:104B6800E4E8E4E8E4E8E4E8E4E8E4E80000FF076F
:104B7800FF07FF07FF07FF07FF07FF07FF07FF07FD
:104B8800FF07FF07FF07FF07FF07FF07FF07FF07ED
:104B98000000E4E8E4E8E4E8E4E8E4E8E4E8000045
:104BA8000000E4E8E4E8E4E8E4E8E4E8E4E8000035
:104BB800FF07FF07FF07FF07FF07FF07FF07FF07BD
:104BC800FF07FF07FF07FF07FF07FF07FF07FF07AD
:104BD800FF070000E4E8E4E8E4E8E4E8E4E8E4E8FF
:104BE80000000000E4E8E4E8E4E8E4E8E4E8E4E8F5
:104BF8000000FF07FF07FF07FF07FF07FF07FF0783
:104C0800FF07FF07FF07FF07FF07FF07FF07FF076C
:104C1800FF07FF070000E4E8E4E8E4E8E4E8E4E884
:104C2800E4E800000000E4E8E4E8E4E8E4E8E4E8B4
:104C3800E4E80000FF07FF07FF07FF07FF07FF077C
:104C4800FF07FF07FF07FF07FF07FF07FF07FF072C
:104C5800FF07FF07FF070000E4E8E4E8E4E8E4E80A
:104C6800E4E8E4E800000000E4E8E4E8E4E8E4E874
:104C7800E4E8E4E80000FF07FF07FF07FF07FF0776
:104C8800FF07FF07FF07FF07FF07FF07FF07FF07EC
:104C9800FF07FF07FF07FF070000E4E8E4E8E4E890
:104CA800E4E8E4E8E4E800000000E4E8E4E8E4E834
:104CB800E4E8E4E8E4E80000FF07FF07FF07FF0770
:104CC800FF07FF07FF07FF07FF07FF07FF07FF07AC
:104CD800FF07FF07FF07FF07FF070000E4E8E4E816
:104CE800E4E8E4E8E4E8E4E800000000E4E8E4E8F4
:104CF800E4E8E4E8E4E8E4E80000FF07FF07FF076A
:104D0800FF07FF07FF07FF07FF07FF07FF07FF076B
:104D1800FF07FF07FF07FF07FF07FF070000E4E89B
:104D2800E4E8E4E8E4E8E4E8E4E800000000E4E8B3
:104D3800E4E8E4E8E4E8E4E8E4E80000FF07FF0763
:104D4800FF07FF07FF07FF07FF07FF07FF07FF072B
:104D5800FF07FF07FF07FF07FF07FF07FF07000021
:104D6800E4E8E4E8E4E8E4E8E4E8E4E80000000073
:104D7800E4E8E4E8E4E8E4E8E4E8E4E80000FF075D
:104D8800FF07FF07FF07FF07FF07FF07FF07FF07EB
:104D9800FF07FF07FF07FF07FF07FF07FF07FF07DB
:104DA8000000E4E8E4E8E4E8E4E8E4E8E4E8000033
:104DB8000000E4E8E4E8E4E8E4E8E4E8E4E8000023
:104DC800FF07FF07FF07FF07FF07FF07FF07FF07AB
:104DD800FF07FF07FF07FF07FF07FF07FF07FF079B
:104DE800FF070000E4E8E4E8E4E8E4E8E4E8E4E8ED
:104DF80000000000E4E8E4E8E4E8E4E8E4E8E4E8E3
:104E08000000FF07FF07FF07FF07FF07FF07FF0770
:104E1800FF07FF07FF07FF07FF07FF07FF07FF075A
:104E2800FF07FF070000E4E8E4E8E4E8E4E8E4E872
:104E3800E4E800000000E4E8E4E8E4E8E4E8E4E8A2
:104E4800E4E80000FF07FF07FF07FF07FF07FF076A
:104E5800FF07FF07FF07FF07FF07FF07FF07FF071A
:104E6800FF07FF07FF070000E4E8E4E8E4E8E4E8F8
:104E7800E4E8E4E80000FF070000E4E8E4E8E4E828
:104E8800E4E80000FF070000000000000000000048
:104E9800000000000000000000000000000000000A
:104EA8000000000000000000FF070000E4E8E4E85C
:104EB800E4E8E4E80000FF07FF07FF070000E4E874
:104EC800E4E80000FF070000E4E8E4E8E4E8E4E8D8
:104ED800E4E8E4E8E4E8E4E8E4E8E4E8E4E8E4E86A
:104EE800E4E8E4E8E4E8E4E8E4E80000FF070000B8
:104EF800E4E8E4E80000FF07FF07FF07FF07FF07F4
:104F080000000000FF070000E4E8E4E8E4E8E4E863
:104F1800E4E8E4E8E4E8E4E8E4E8E4E8E4E8E4E829
:104F2800E4E8E4E8E4E8E4E8E4E8E4E8E4E80000E5
:104F3800FF0700000000FF07FF07FF07FF07FF0745
:104F4800FF07FF07FF070000E4E8E4E8E4E8E4E817
:104F5800E4E8E4E8E4E8E4E8E4E8E4E8E4E8E4E8E9
:104F6800E4E8E4E8E4E8E4E8E4E8E4E8E4E8E4E8D9
:104F7800E4E80000FF07FF07FF07FF07FF07FF0739
:104F8800FF07FF07FF07FF070000E4E8E4E8E4E89D
:104F9800E4E8E4E8E4E8E4E8E4E8E4E8E4E8E4E8A9
:104FA800E4E8E4E8E4E8E4E8E4E8E4E8E4E8E4E899
:104FB800E4E8E4E80000FF07FF07FF07FF07FF0733
:104FC800FF07FF07FF07FF07FF07FF070000E4E8E9
:104FD800E4E8E4E8E4E8E4E8E4E8E4E8E4E8E4E869
:104FE800E4E8E4E8E4E8E4E8E4E8E4E8E4E8E4E859
:104FF800E4E8E4E80000FF0700000000FF07FF07FF
:10500800FF07FF07FF07FF07FF07FF07FF07FF0768
:105018000000E4E8E4E8E4E8E4E8E4E8E4E8E4E8F4
:10502800E4E8E4E8E4E8E4E8E4E8E4E8E4E8E4E818
:10503800E4E8E4E80000FF070000E4E8E4E8000032
:10504800FF07FF07FF07FF07FF07FF07FF07FF0728
:10505800FF07FF070000000000000000000000003C
:105068000000000000000000000000000000000038
:10507800000000000000FF070000E4E8E4E8E4E8BE
:10508800E4E80000FF07FF07FF07FF07FF07FF0728
:10509800FF07FF07FF07FF07FF07FF07FF07FF07D8
:1050A800FF07FF07FF07FF07FF07FF07FF07FF07C8
:1050B800FF07FF07FF07FF070000E4E8E4E8E4E86C
:1050C800E4E8E4E8E4E80000FF07FF07FF07FF075C
:1050D800FF07FF07FF07FF07FF07FF07FF07FF0798
:1050E800FF07FF07FF07FF07FF07FF07FF07FF0788
:1050F800FF07FF07FF07FF07FF070000E4E8E4E8F2
:10510800E4E8E4E8E4E8E4E80000FF07FF07FF0755
:10511800FF07FF07FF07FF07FF07FF07FF07FF0757
:10512800FF07FF07FF07FF07FF07FF07FF07FF0747
:10513800FF07FF07FF07FF07FF07FF070000E4E877
:10514800E4E8E4E8E4E8E4E8E4E80000FF07FF074F
:10515800FF07FF07FF07FF07FF07FF07FF07FF0717
:10516800FF07FF07FF07FF07FF07FF07FF07FF0707
:10517800FF07FF07FF07FF07FF07FF07FF070000FD
:10518800E4E8E4E8E4E8E4E8E4E8E4E80000FF0749
:10519800FF07FF07FF07FF07FF07FF07FF07FF07D7
:1051A800FF07FF07FF07FF07FF07FF07FF07FF07C7
:1051B800FF07FF07FF07FF07FF07FF07FF07FF07B7
:1051C8000000E4E8E4E8E4E8E4E8E4E8E4E800000F
:1051D800FF07FF07FF07FF07FF07FF07FF07FF0797
:1051E800FF07FF07FF07FF07FF07FF07FF07FF0787
:1051F800FF07FF07FF07FF07FF07FF07FF07FF0777
:10520800FF070000E4E8E4E8E4E8E4E8E4E8E4E8C8
:105218000000FF07FF07FF07FF07FF07FF07FF075C
:10522800FF07FF07FF07FF07FF07FF07FF07FF0746
:10523800FF07FF07FF07FF07FF07FF07FF07FF0736
:10524800FF07FF070000E4E8E4E8E4E8E4E8E4E84E
:10525800E4E80000FF07FF07FF07FF07FF07FF0756
:10526800FF07FF07FF07FF07FF07FF07FF07FF0706
:10527800FF07FF07FF07FF07FF07FF07FF07FF07F6
:10528800FF07FF07FF070000E4E8E4E8E4E8E4E8D4
:10529800E4E8E4E80000FF07FF07FF07FF07FF0750
:1052A800FF07FF07FF07FF07FF07FF07FF07FF07C6
:1052B800FF07FF07FF07FF07FF07FF07FF07FF07B6
:1052C800FF07FF07FF07FF070000E4E8E4E8E4E85A
:1052D800E4E8E4E8E4E80000FF07FF07FF07FF074A
:1052E800FF07FF07FF07FF07FF07FF07FF07FF0786
:1052F800FF07FF07FF07FF07FF07FF07FF07FF0776
:10530800FF07FF07FF07FF07FF070000E4E8E4E8DF
:10531800E4E8E4E8E4E8E4E80000FF07FF07FF0743
:10532800FF07FF07FF07FF07FF07FF07FF07FF0745
:10533800FF07FF07FF07FF07FF07FF07FF07FF0735
:10534800FF07FF07FF07FF07FF07FF070000E4E865
:10535800E4E8E4E8E4E8E4E8E4E80000FF07FF073D
:10536800FF07FF07FF07FF07FF07FF07FF07FF0705
:10537800FF07FF07FF07FF07FF07FF07FF07FF07F5
:10538800FF07FF07FF07FF07FF07FF07FF070000EB
:10539800E4E8E4E8E4E8E4E8E4E8E4E80000FF0737
:1053A800FF07FF07FF07FF07FF07FF07FF07FF07C5
:1053B800FF07FF07FF07FF07FF07FF07FF07FF07B5
:1053C800FF07FF07FF07FF07FF07FF07FF07FF07A5
:1053D8000000E4E8E4E8E4E8E4E8E4E8E4E80000FD
:1053E800FF07FF07FF07FF07FF07FF07FF07FF0785
:1053F800FF07FF07FF07FF07FF07FF07FF07FF0775
:10540800FF07FF07FF07FF07FF07FF07FF07FF0764
:10541800FF070000E4E8E4E8E4E8E4E8E4E8E4E8B6
:105428000000FF07FF07FF07FF07FF07FF07FF074A
:10543800FF07FF07FF07FF07FF07FF07FF07FF0734
:10544800FF07FF07FF07FF07FF07FF07FF07FF0724
:10545800FF07FF070000E4E8E4E8E4E8E4E8E4E83C
:10546800E4E80000FF07FF07FF07FF07FF07FF0744
:10547800FF07FF07FF07FF07FF07FF07FF07FF07F4
:10548800FF07FF07FF07FF07FF07FF07FF07FF07E4
:10549800FF07FF07FF070000E4E8E4E8E4E8E4E8C2
:1054A800E4E8E4E80000FF07FF07FF07FF07FF073E
:1054B800FF07FF07FF07FF07FF07FF07FF07FF07B4
:1054C800FF07FF07FF07FF07FF07FF07FF07FF07A4
:1054D800FF07FF07FF07FF070000E4E8E4E8E4E848
:1054E800E4E8E4E8E4E80000FF07FF07FF07FF0738
:1054F800FF07FF07FF07FF07FF07FF07FF07FF0774
:10550800FF07FF07FF07FF07FF07FF07FF07FF0763
:10551800FF07FF07FF07FF07FF07FF070000E4E893
:10552800E4E8E4E8E4E80000FF07FF07FF07FF07F7
:10553800FF07FF07FF07FF07FF07FF07FF07FF0733
:10554800FF07FF07FF07FF07FF07FF07FF07FF0723
:10555800FF07FF07FF07FF07FF07FF07FF07FF0713
:105568000000E4E8E4E80000FF07FF07FF07FF0783
:10557800FF07FF07FF07FF07FF07FF07FF07FF07F3
:10558800FF07FF07FF07FF07FF07FF07FF07FF07E3
:10559800FF07FF07FF07FF07FF07FF07FF07FF07D3
:1055A800FF07FF0700000000FF07FF07FF07FF07CF
:1055B800FF07FF07FF07FF07FF07FF07FF07FF07B3
:1055C800FF07FF07FF07FF07FF07FF07FF07FF07A3
:1055D800FF07FF07FF07FF07FF07FF07FF07FF0793
:1055E800FF07FF07FF07FF07FF07FF07FF07FF0783
:1055F800FF07FF07FF07FF07FF07FF07FF07FF0773
:10560800FF07FF07FF07FF07FF07FF07FF07FF0762
:10561800FF07FF07FF07FF07FF07FF07FF07FF0752
:10562800FF07FF07FF07FF07FF07FF07FF07FF0742
:10563800FF07FF07FF07FF07FF07FF07FF07FF0732
:10564800FF07FF07FF07FF07FF07FF07FF07FF0722
:10565800FF07FF07FF07FF07FF07FF07FF07FF0712
:10566800FF07FF07FF07FF07FF07FF07FF07FF0702
:10567800FF07FF07FF07FF07FF07FF07FF07FF07F2
:10568800FF07FF07FF07FF07FF07FF07FF07FF07E2
:10569800FF07FF07FF07FF07FF07FF07FF07FF07D2
:1056A800FF07FF07FF07FF07FF07FF07FF07FF07C2
:1056B800FF07FF07FF07FF07FF07FF07FF07FF07B2
:1056C800FF07FF07FF07FF07FF07FF07FF07FF07A2
:1056D800FF07FF07FF07FF07FF07FF07FF07FF0792
:1056E800FF07FF07FF07FF07FF07FF07FF07FF0782
:1056F800FF07FF07FF07FF07FF07FF07FF07FF0772
:10570800FF07FF07FF07FF07000000000000000079
:105718000000000000000000000000000000000081
:1057280000000000000000000000FF07FF07FF075F
:10573800FF07FF07FF07FF07FF07FF07FF07FF0731
:10574800FF07FF07FF07FF070000E4E8E4E8E4E8D5
:10575800E4E8E4E8E4E8E4E8E4E8E4E8E4E8E4E8E1
:10576800E4E8E4E8E4E8E4E8E4E8E4E80000FF0763
:10577800FF07FF07FF07FF07FF07FF07FF07FF07F1
:10578800FF07FF07FF07FF070000E4E8E4E8E4E895
:10579800E4E8E4E8E4E8E4E8E4E8E4E8E4E8E4E8A1
:1057A800E4E8E4E8E4E8E4E8E4E8E4E8E4E8E4E891
:1057B8000000FF07FF07FF07FF07FF07FF07FF07B7
:1057C800FF07FF07FF07FF070000E4E8E4E8E4E855
:1057D800E4E8E4E8E4E8E4E8E4E8E4E8E4E8E4E861
:1057E800E4E8E4E8E4E8E4E8E4E8E4E8E4E8E4E851
:1057F800E4E8E4E80000FF07FF07FF07FF07FF07EB
:10580800FF07FF07FF07FF07FF070000E4E8E4E8DA
:10581800E4E8E4E8E4E8E4E8E4E8E4E8E4E8E4E820
:10582800E4E8E4E8E4E8E4E8E4E8E4E8E4E8E4E810
:10583800E4E8E4E8E4E80000FF07FF07FF07FF07E4
:10584800FF07FF07FF07FF0700000000FF07000032
:10585800E4E8E4E8E4E8E4E8E4E8E4E8E4E8E4E8E0
:10586800E4E8E4E8E4E8E4E8E4E8E4E8E4E8E4E8D0
:10587800E4E8E4E8E4E80000FF0700000000FF07B0
:10588800FF07FF07FF07FF070000E4E8E4E8000060
:10589800FF070000E4E8E4E8E4E8E4E8E4E8E4E832
:1058A800E4E8E4E8E4E8E4E8E4E8E4E8E4E8E4E890
:1058B800E4E8E4E8E4E80000FF070000E4E8E4E8DE
:1058C8000000FF07FF07FF070000E4E8E4E8E4E85A
:1058D800E4E80000FF0700000000000000000000EE
:1058E80000000000000000000000000000000000B0
:1058F8000000000000000000FF070000E4E8E4E802
:10590800E4E8E4E80000FF070000E4E8E4E8E4E88D
:10591800E4E8E4E8E4E80000FF07FF07FF07FF0703
:10592800FF07FF07FF07FF07FF07FF07FF07FF073F
:10593800FF07FF07FF07FF07FF070000E4E8E4E8A9
:10594800E4E8E4E8E4E8E4E800000000E4E8E4E887
:10595800E4E8E4E8E4E8E4E80000FF07FF07FF07FD
:10596800FF07FF07FF07FF07FF07FF07FF07FF07FF
:10597800FF07FF07FF07FF07FF07FF070000E4E82F
:10598800E4E8E4E8E4E8E4E8E4E800000000E4E847
:10599800E4E8E4E8E4E8E4E8E4E80000FF07FF07F7
:1059A800FF07FF07FF07FF07FF07FF07FF07FF07BF
:1059B800FF07FF07FF07FF07FF07FF07FF070000B5
:1059C800E4E8E4E8E4E8E4E8E4E8E4E80000000007
:1059D800E4E8E4E8E4E8E4E8E4E8E4E80000FF07F1
:1059E800FF07FF07FF07FF07FF07FF07FF07FF077F
:1059F800FF07FF07FF07FF07FF07FF07FF07FF076F
:105A08000000E4E8E4E8E4E8E4E8E4E8E4E80000C6
:105A18000000E4E8E4E8E4E8E4E8E4E8E4E80000B6
:105A2800FF07FF07FF07FF07FF07FF07FF07FF073E
:105A3800FF07FF07FF07FF07FF07FF07FF07FF072E
:105A4800FF070000E4E8E4E8E4E8E4E8E4E8E4E880
:105A580000000000E4E8E4E8E4E8E4E8E4E8E4E876
:105A68000000FF07FF07FF07FF07FF07FF07FF0704
:105A7800FF07FF07FF07FF07FF07FF07FF07FF07EE
:105A8800FF07FF070000E4E8E4E8E4E8E4E8E4E806
:105A9800E4E800000000E4E8E4E8E4E8E4E8E4E836
:105AA800E4E80000FF07FF07FF07FF07FF07FF07FE
:105AB800FF07FF07FF07FF07FF07FF07FF07FF07AE
:105AC800FF07FF07FF070000E4E8E4E8E4E8E4E88C
